:020000040800F2
:10000000580400209D010008650D0008610D0008DE
:10001000630D0008B1020008F9110008000000009B
:10002000000000000000000000000000890D000832
:100030004103000800000000870D00088B0D000838
:10004000B7010008B7010008B7010008B7010008B0
:10005000B7010008B701000843030008B701000812
:10006000B7010008B7010008B7010008B701000890
:10007000B7010008B7010008B7010008B701000880
:10008000B7010008B7010008B7010008B701000870
:10009000B7010008B7010008B7010008B701000860
:1000A000B7010008B7010008B7010008B701000850
:1000B000B7010008B7010008B7010008B701000840
:1000C000B7010008B7010008B7010008B701000830
:1000D000B7010008B7010008B7010008B701000820
:1000E000B7010008B7010008B7010008B701000810
:1000F000B7010008B7010008B7010008B701000800
:10010000B7010008B7010008B7010008B7010008EF
:10011000B7010008B7010008B7010008B7010008DF
:10012000B7010008B7010008B7010008B7010008CF
:10013000B7010008B7010008B7010008B7010008BF
:10014000B7010008B7010008B7010008B7010008AF
:10015000B7010008B7010008B7010008B70100089F
:10016000B7010008B7010008B7010008B70100088F
:10017000B7010008B7010008B7010008000000003F
:10018000B7010008B7010008DFF80CD000F07EF8D6
:10019000004800470D140008580400200648804716
:1001A00006480047FEE7FEE7FEE7FEE7FEE7FEE75C
:1001B000FEE7FEE7FEE7FEE72D0E000889010008D6
:1001C0002DE9F05F0546002092469B46884606468C
:1001D000814640241BE0284641464746224600F01F
:1001E00045F853465A46C01A914110D31146184655
:1001F000224600F02CF82D1A67EB01084F462246E4
:100200000120002100F023F817EB00094E41201EC9
:10021000A4F10104DFDC484631462A464346BDE8E6
:10022000F09F30B50B46014600202022012409E052
:1002300021FA02F59D4205D303FA02F5491B04FA9F
:1002400002F52844151EA2F10102F1DC30BD202A7E
:1002500004DB203A00FA02F1002070479140C2F11D
:10026000200320FA03F3194390407047202A04DB4F
:10027000203A21FA02F00021704721FA02F3D0401F
:10028000C2F120029140084319467047064C074DC1
:1002900006E0E06840F0010394E807009847103456
:1002A000AC42F6D3FFF774FF7014000890140008F6
:1002B000FEE700000648016841F0807101600548D2
:1002C00000214160016841F00101016070470000B8
:1002D000FCED00E0001000E00148406870470000BD
:1002E000001000E001B50021009BA8204343FFF768
:1002F000F3FF0246FFF7F0FF9042FBD003D9A0EBDB
:100300000202114403E06FEA020202441144024671
:100310009942EFD308BD00000848074901604FF437
:10032000E131416000218160C160016181610C2186
:10033000416100F043BC00000010014014000020A7
:10034000704770472DE9F84F0022DFF89091DFF8F1
:100350008C8109F108094FF0010E4FF00F0C09F1E3
:10036000040A0EFA02F60B683340B34271D14C68AE
:10037000022C01D0122C11D1D40800EB84073D6A65
:100380005407E40E0CFA04FB25EA0B05D1F810B073
:100390000BFA04FB4BEA050BC7F820B007685400C2
:1003A0000325A540AF4391F804B00BF0030B0BFA03
:1003B00004FB4BEA070BC0F800B04F68012F05D0D3
:1003C000022F03D0112F01D0122F11D18768AF4314
:1003D000D1F80CB00BFA04FB4BEA070BC0F808B0DD
:1003E0004768B7430E79C6F3001696403E43466011
:1003F000C668AE438D68A5403543C5604C68E400CF
:1004000065D5374C256845F480452560246804F49B
:1004100080440094334C22F003052544D5F8087835
:100420009407260F0CFA06F4A7432F4CA04201D1E3
:10043000002424E02D4CA04201D101241FE02C4CCB
:10044000A04201D102241AE02A4CA04202D1032486
:1004500015E03CE0284CA04201D104240FE0274CD9
:10046000A04201D105240AE0254CA04201D1062476
:1004700005E0244CA04201D1072400E00824B44048
:100480003C43C5F80848D8F800409C434D68ED034C
:1004900000D51C43C8F80040104D2D1D2C689C430E
:1004A0004E68B60300D51C432C60D9F800409C432D
:1004B0004D68ED0200D51C43C9F80040DAF8004051
:1004C0009C434D68AD0200D51C43CAF80040521C45
:1004D000102AFFF446AFBDE8F88F0000003C014051
:1004E0004438024000300140000002400004024055
:1004F00000080240000C02400010024000140240BC
:1005000000180240001C024001480068000C7047BF
:10051000002004E0014880687047000000000020CF
:100520000248816802781144816070470000002011
:1005300010B50948016841F400710160016841F497
:1005400080610160032000F04DF80F2000F006F8F4
:1005500000F026F8002010BD003C024070B50446B3
:100560000D4D4FF47A712878B1FBF0F00B49096812
:10057000B1FBF0F000F00EFB08B1012070BD102CB3
:1005800007D200222146501E00F00CF86C600020BB
:1005900070BD012070BD0000000000200C00002094
:1005A00070470000F0B40D460D4B1B68C3F30223E7
:1005B000C3F10704042C00D90424191D072901D212
:1005C000002300E0DB1E012606FA04F1491E294043
:1005D00099409E40761E16403143F0BC00F0C3BBEC
:1005E0000CED00E000F00701054A10684FF6FF032C
:1005F000184040EA0120034908431060704700009A
:100600000CED00E00000FA052DE9F04704460D4628
:10061000002C13D0DFF82491D9F80000EFB200F0DD
:100620000F00A8420CD289F80070D9F8000000F041
:100630000F00A84204D00120BDE8F0870120FBE7AD
:1006400020683F4E810712D5400703D5306840F43B
:10065000E05030602078000703D5306840F46040F7
:1006600030603068A16820F0F000084330602078E6
:10067000C00731D0324960680839012808D0022803
:100680000BD0032809D0096889070BD40120D3E7D0
:100690000968890306D40120CEE70968890101D4DD
:1006A0000120C9E7316821F0030101433160FFF700
:1006B00031FF804641F2883A07E0FFF72BFFA0EBBD
:1006C0000800504501D90320B6E73068616800F0A2
:1006D0000C00B0EB810FF0D1D9F8000000F00F0052
:1006E000A84209D989F80070D9F8000000F00F007D
:1006F000A84201D001209FE72078400705D5306847
:10070000E16820F4E050084330602078000706D507
:100710003068216920F4604040EAC100306000F098
:100720003BF83168074AC1F30311515CC8400649E0
:1007300008600F20FFF712FF00207DE7003C024019
:1007400008380240581400080C00002001480068D6
:10075000704700000C00002000B5FFF7F7FF0449C8
:100760000968044AC1F38221515CC84000BD000001
:10077000083802406814000800B5FFF7E7FF044995
:100780000968044AC1F34231515CC84000BD000011
:10079000083802406814000810B51748006810F0C7
:1007A0000C01164816D0164B042912D0082911D175
:1007B000114C241F216801F03F02216849020AD52B
:1007C0002068C0F38810A0FB03010023FFF7F8FCAA
:1007D00009E0184610BD21680023C1F38811A1FB70
:1007E0000001FFF7EDFC2168C1F30141491C4900FC
:1007F000B0FBF1F010BD0000083802400024F40006
:1008000040787D012DE9F84F0446002C10D0207867
:10081000DC4DC00757D0DB4808300168C1F38101C7
:1008200001290DD00068C0F38100022803D00EE03A
:100830000120BDE8F88FD348001D0068400206D5AE
:10084000286880033FD5606870BB0120F1E76068CD
:10085000B0F5803F10D0B0F5A02F12D0286820F45A
:1008600080302860286820F4802028606068E0B12B
:10087000FFF750FE064614E0286840F480302860F8
:10088000F4E7286840F480202860286840F480302D
:100890002860EBE7FFF73EFE801B642801D90320A8
:1008A000C7E728688003F5D50DE0FFF733FE06465D
:1008B00006E0FFF72FFE801B642801D90320B8E76C
:1008C00028688003F5D42078AF4F80074FF00008E8
:1008D00049D5AC480830016811F00C0F09D0006808
:1008E000C0F38100022814D1A648001D0068400210
:1008F0000FD42868800704D5E068012801D00120C2
:1009000097E72868216920F0F80040EAC1002860D4
:1009100029E0E068B8B101203860FFF7FBFD06462A
:1009200006E0FFF7F7FD801B022801D9032080E7CE
:1009300028688007F5D52868216920F0F80040EA8A
:10094000C10028600FE0C7F80080FFF7E3FD06460E
:1009500006E0FFF7DFFD801B022801D9032068E7CE
:1009600028688007F5D42078000729D5DFF814928D
:100970008648616909F1740989B101210160FFF7B5
:10098000C9FD064606E0FFF7C5FD801B022801D918
:1009900003204EE7D9F800008007F4D510E0C0F836
:1009A0000080FFF7B7FD064606E0FFF7B3FD801BAA
:1009B000022801D903203CE7D9F800008007F4D4CD
:1009C0002078400772D50026DFF8B8A10AF1400A66
:1009D000DAF80000C0000BD4DAF8000040F08050D4
:1009E000CAF80000DAF8000000F0805000900126FC
:1009F000DFF89CB1DBF80000C00515D4DBF800007F
:100A000040F48070CBF80000FFF784FD814607E0DA
:100A1000FFF780FDA0EB0900022801D9032008E7B9
:100A2000DBF80000C005F3D5DFF858B1A0680BF182
:100A3000700B012813D0052818D0DBF8000020F037
:100A40000100CBF80000DBF8000020F00400CBF838
:100A50000000A06830B3FFF75DFD81461DE0DBF8C4
:100A6000000040F00100CBF80000F2E7DBF80000E6
:100A700040F00400CBF80000DBF8000040F001007B
:100A8000CBF80000E5E7FFF745FDA0EB090141F2D7
:100A90008830814201D90320CBE6DBF800008007D3
:100AA000F1D512E0FFF736FD81460AE015E0FFF7C9
:100AB00031FDA0EB090141F28830814201D90320C8
:100AC000B7E6DBF800008007F1D4012E05D1DAF893
:100AD000000020F08050CAF80000A069C0B3294986
:100AE00008310968C1F38101022949D0022805D0E3
:100AF000C7F86080FFF70EFD04463CE0C7F8608051
:100B0000FFF708FD064606E0FFF704FD801B0228FC
:100B100001D903208DE628688001F5D4D4E90701C6
:100B20000843616AA26A4FF0FF33890103EB520266
:100B300041EA0241084394F82C1040EA016111484F
:100B4000001D016001203866FFF7E4FC044607E061
:100B500014E0FFF7DFFC001B022801D9032068E640
:100B600028688001F5D509E0FFF7D4FC001B0228B6
:100B700001D903205DE628688001F5D4002058E6FD
:100B8000012056E60038024000004742800E4742EE
:100B90000070004010B5401EB0F1807F01D30120ED
:100BA00010BD4FF0E02460610F21601700F0DBF80A
:100BB0000020A06107202061002010BD70B5044610
:100BC000002C04D094F83900002510B106E0012073
:100BD00070BD84F83850204600F022F8242084F8B4
:100BE00039002068C16821F40051C160204600F03E
:100BF00047F92068016921F4904101612068416949
:100C000021F02A0141612068C16841F40051C160AE
:100C1000E563202084F8390084F83A00002070BD94
:100C200030B587B01948016841F0100101600068D3
:100C300000F01000019015481438016841F00101DE
:100C40000160016801F001010191016841F00101B9
:100C50000160006800F0010001904FF40070029004
:100C6000022003900120049003200590072406949D
:100C7000074D02A92846FFF765FB29150291069446
:100C800002A92846FFF75EFB07B030BD443802409A
:100C9000000002402DE9F84304460D4691461E46E9
:100CA00094F83900202802D00220BDE8F883B5B1BD
:100CB000B9F1000F13D094F83800012811D00120A9
:100CC00084F838000027E763212084F83900FFF713
:100CD00021FC8046A4F82490A4F826902DE0012061
:100CE000E3E70220E1E7E08C401EE084A068B0F575
:100CF000805F09D04346002280212046009600F004
:100D000049FAB0B10320D0E74346002280212046B3
:100D1000009600F03FFA08B10320C6E72888216852
:100D2000C0F308004860206908B16D1C05E0AD1CE7
:100D300003E0216815F8010B4860E08C0028D2D14F
:100D40004346002240212046009600F023FA08B1D5
:100D50000320AAE720203834607027700020A4E721
:100D6000FEE7FEE770470907090E002806DA00F0E3
:100D70000F0000F1E02080F8141D704700F1E02022
:100D800080F80014704770477047FFF7C9BB000038
:100D900030B593B000252248016841F080510160D0
:100DA000006800F0805001901E48016841F48041C5
:100DB0000160006800F4804001900120029000046E
:100DC0000390022408948001099019200A904FF49E
:100DD000A8700B900C9407200D9002A8FFF712FD4D
:100DE00000B1FEE70F200E900F9410954FF4A05025
:100DF00011904FF48050129005210EA8FFF704FCCB
:100E000000B1FEE7FFF780FB41F20101884204D107
:100E10000548016841F48071016013B030BD0000E5
:100E20004038024000700040003C02401048016819
:100E300041F4700101600F48016841F00101016057
:100E40000C4A00210832116002680B4B1A40026004
:100E5000031D0A4A1A60026822F4802202600548D3
:100E60000C30016002495806803908607047000064
:100E700088ED00E000380240FFFFF6FE103000244D
:100E80002DE9F04104462068016921F44052E168EF
:100E9000114301612068C26849F20C618A432369E9
:100EA000A168E569194363692B4319431143C16084
:100EB0002068416921F44071A2690A434261E069F6
:100EC000B24AB34964253226B0F5004F59D02068A4
:100ED000884201D090427DD1FFF74EFC00EBC0016B
:100EE00001EB001061688900B0FBF1F7FFF744FCEB
:100EF00000EBC00101EB001061688900B0FBF1F06C
:100F0000B0FBF5F06FF01801484307EB800006EBEB
:100F10000010B0FBF5F000F0F007FFF72DFC00EB40
:100F2000C00101EB001061688900B0FBF1F0B0FB7B
:100F3000F5F007EB0017FFF71FFC00EBC00101EB1A
:100F4000001061688900B0FBF1F8FFF715FC00EBB9
:100F5000C00101EB001061688900B0FBF1F0B0FB4B
:100F6000F5F06FF01801484308EB800006EB001025
:100F7000B0FBF5F0216800F00F0038448860BDE850
:100F8000F0812068884201D0904256D1FFF7F4FBEF
:100F900000EBC00101EB001061684900B0FBF1F00B
:100FA000B0FBF5F00701FFF7E7FB00EBC00101EB39
:100FB000001061684900B0FBF1F8FFF7DDFB00EBC2
:100FC000C00101EB001061684900B0FBF1F0B0FB1B
:100FD000F5F000E086E06FF01801484308EB800070
:100FE00006EBC000B0FBF5F000F0F80007EB40079F
:100FF000FFF7C2FB00EBC00101EB00106168490084
:10100000B0FBF1F8FFF7B8FB00EBC00101EB0010FB
:1010100061684900B0FBF1F0B0FBF5F06FF018012A
:10102000484308EB800006EBC000B0FBF5F02168F8
:1010300000F0070038448860A1E7FFF78DFB00EB64
:10104000C00101EB001061684900B0FBF1F0B0FB9A
:10105000F5F00701FFF780FB00EBC00101EB00108A
:1010600061684900B0FBF1F8FFF776FB00EBC001C7
:1010700001EB001061684900B0FBF1F0B0FBF5F046
:101080006FF01801484308EB800006EBC000B0FB8E
:10109000F5F000F0F80007EB4007FFF75DFB00EB11
:1010A000C00101EB001061684900B0FBF1F8FFF7E7
:1010B00053FB00EBC00101EB001061684900B0FB7D
:1010C000F1F0B0FBF5F06FF01801484308EB800039
:1010D00006EBC000B0FBF5F0216800F007003844D3
:1010E00088604CE7FFF738FB00EBC00101EB001014
:1010F00061688900B0FBF1F7FFF72EFB00EBC00140
:1011000001EB001061688900B0FBF1F0B0FBF5F075
:101110006FF01801484307EB800006EB0010B0FBAE
:10112000F5F000F0F007FFF717FB00EBC00101EB53
:10113000001061688900B0FBF1F0B0FBF5F007EB3F
:101140000017FFF709FB00EBC00101EB001061681D
:101150008900B0FBF1F8FFF7FFFA00EBC00101EBEB
:10116000001061688900B0FBF1F0B0FBF5F06FF0A2
:101170001801484308EB800006EB0010B0FBF5F0C7
:10118000216800F00F0038448860F8E60014014040
:10119000001001402DE9F04104460E4617469846DE
:1011A000069D1DE0681C1BD02DB1FFF7B3F9A0EB25
:1011B0000800A84214D92068C16821F4D071C16028
:1011C0002068416921F001014161202084F8390043
:1011D00084F83A00002084F838000320BDE8F0814C
:1011E0002068006836EA000004D00020B842D9D058
:1011F0000020F3E70120F9E7FEE700000FB4054BFC
:1012000010B503A9044A029800F018F810BC5DF864
:1012100014FB0000F51300081000002002E008C8CD
:10122000121F08C1002AFAD170477047002001E060
:1012300001C1121F002AFBD1704700002DE9FF4FAA
:101240008BB09A460F460546002606E025280BD0AF
:1012500052460D9990476D1C761C28780028F5D1D0
:101260000FB03046BDE8F08F0024A046012260494F
:1012700000E0044315F8013F203B02FA03F0084266
:10128000F7D128782E2817D115F8010F44F004045F
:101290002A280ED06FF02F022878A0F130010929FA
:1012A0000AD808EB880102EB410100EB01086D1C34
:1012B000F2E757F8048B6D1C287869283ED006DCCD
:1012C0000028CDD063280BD0642804D136E07328E1
:1012D00010D075284BD052460D999047761C85E06A
:1012E00017F8040B8DF8000000208DF80100E94686
:1012F000012003E057F8049B4FF0FF3061074FF0E7
:10130000000401D40AE0641C44450DDA8442FADB8F
:1013100019F804100029F6D106E0641C8442FCDBB5
:1013200019F804100029F8D1264404E019F8010B3B
:1013300052460D999047641EF8D257E001CF4FF006
:101340000A0B002802DA40422D2102E0210504D5D3
:101350002B218DF82410012103E0E10705D0202185
:10136000F7E70DF1200908910CE00021F9E701CF22
:101370004FF00A0BF9E75946FEF753FF01F130022F
:1013800009F8012D0028F6D1ADEB090000F1200B82
:10139000600701D44FF00108D84502DDA8EB0B002F
:1013A00000E000208046002406E009A85246005DC7
:1013B0000D999047641C761C08988442F5DB04E084
:1013C000302052460D999047761CB8F10001A8F1E3
:1013D0000108F5DC05E019F8010B52460D9990471C
:1013E000761CBBF10001ABF1010BF4DC6D1C34E7A2
:1013F0000928010013B54FF47A73012269460248A7
:10140000FFF748FC00981CBD14000020FFF790F87F
:10141000FFF7BEFCFEF74EFFFEF77EFF054C2046B1
:10142000FEF760FF04A0FFF7E9FE07A0FFF7E6FE66
:10143000F5E70000404B4C000D0A5B494E464F5DFE
:10144000203E3E2000000000737563636573736681
:10145000756C6C79000000000000000000000000C6
:10146000010203040607080900000000010203044A
:101470009014000800000020140000001C12000856
:10148000A414000814000020440400002C120008DA
:101490000100000010000000000000000024F40023
:0414A0000000000048
:040000050800018965
:00000001FF
