:020000040800F2
:10000000D088002059020008A30D00084D02000806
:10001000A10D0008A1030008311200080000000033
:10002000000000000000000000000000D1010008F6
:100030003104000800000000F1010008A50D0008CF
:1000400073020008730200087302000873020008BC
:1000500073020008730200083304000873020008EA
:10006000730200087302000873020008730200089C
:10007000730200087302000873020008730200088C
:10008000730200087302000873020008730200087C
:10009000730200087302000873020008730200086C
:1000A000730200087302000873020008730200085C
:1000B000730200087302000873020008730200084C
:1000C000730200087302000873020008730200083C
:1000D000730200087302000873020008730200082C
:1000E000730200087302000873020008730200081C
:1000F000730200087302000873020008730200080C
:1001000073020008730200087302000873020008FB
:1001100073020008730200087302000873020008EB
:1001200073020008730200087302000873020008DB
:1001300073020008730200087302000873020008CB
:1001400073020008730200087302000873020008BB
:1001500073020008730200087302000873020008AB
:10016000730200087302000873020008730200089B
:100170007302000873020008730200080000000008
:100180007302000873020008DFF80CD000F0F6F8E4
:10019000004800479D1D0008D088002006480068E0
:1001A000006880F3088862B661B6BFF34F8FBFF373
:1001B0006F8F00DF00BF00BF08ED00E0DFF80C002C
:1001C000016841F470010160704700BF88ED00E0F4
:1001D0001D4B19680868B0E8F04F80F30988BFF339
:1001E0006F8F4FF0000080F311887047000000000F
:1001F000EFF30980BFF36F8F134B1A681EF0100FD7
:1002000008BF20ED108A20E9F04F106008B44FF0CD
:10021000500080F31188BFF34F8FBFF36F8F02F050
:1002200061FB4FF0000080F3118808BC1968086872
:10023000B0E8F04F1EF0100F08BFB0EC108A80F34A
:100240000988BFF36F8F7047280000207046694609
:1002500001F0B4FAFFF7FEFF064880470648004762
:10026000FEE7FEE7FEE7FEE7FEE7FEE7FEE7FEE766
:10027000FEE7FEE7650E0008890100082DE9F05F42
:100280000546002092469B46884606468146402405
:100290001BE0284641464746224600F05FF8534699
:1002A0005A46C01A914110D311461846224600F012
:1002B00046F82D1A67EB01084F462246012000211F
:1002C00000F03DF817EB00094E41201EA4F1010497
:1002D000DFDC484631462A464346BDE8F09F40EA07
:1002E00001039B0703D009E008C9121F08C0042AB4
:1002F000FAD203E011F8013B00F8013B521EF9D29B
:100300007047D2B201E000F8012B491EFBD27047C2
:100310000022F6E710B513460A4604461946FFF7D1
:10032000F0FF204610BD10B5044604E00B7800F83D
:10033000013B03B1491C521EF8D2204610BD202AB1
:1003400004DB203A00FA02F1002070479140C2F12C
:10035000200320FA03F3194390407047202A04DB5E
:10036000203A21FA02F00021704721FA02F3D0402E
:10037000C2F120029140084319467047064C074DD0
:1003800006E0E06840F0010394E807009847103465
:10039000AC42F6D3FFF7FCFE443700086437000890
:1003A000FEE700000648016841F0807101600548E1
:1003B00000214160016841F00101016070470000C7
:1003C000FCED00E0001000E00148406870470000CC
:1003D000001000E001B50021009BA8204343FFF777
:1003E000F3FF0246FFF7F0FF9042FBD003D9A0EBEA
:1003F0000202114403E06FEA020202441144024681
:100400009942EFD308BD00000848074901604FF446
:10041000E131416000218160C160016181610C2195
:10042000416100F0EBBB000000100140908400200F
:10043000704770472DE9F84F0022DFF89091DFF800
:100440008C8109F108094FF0010E4FF00F0C09F1F2
:10045000040A0EFA02F60B683340B34271D14C68BD
:10046000022C01D0122C11D1D40800EB84073D6A74
:100470005407E40E0CFA04FB25EA0B05D1F810B082
:100480000BFA04FB4BEA050BC7F820B007685400D1
:100490000325A540AF4391F804B00BF0030B0BFA12
:1004A00004FB4BEA070BC0F800B04F68012F05D0E2
:1004B000022F03D0112F01D0122F11D18768AF4323
:1004C000D1F80CB00BFA04FB4BEA070BC0F808B0EC
:1004D0004768B7430E79C6F3001696403E43466020
:1004E000C668AE438D68A5403543C5604C68E400DE
:1004F00065D5374C256845F480452560246804F4AB
:1005000080440094334C22F003052544D5F8087844
:100510009407260F0CFA06F4A7432F4CA04201D1F2
:10052000002424E02D4CA04201D101241FE02C4CDA
:10053000A04201D102241AE02A4CA04202D1032495
:1005400015E03CE0284CA04201D104240FE0274CE8
:10055000A04201D105240AE0254CA04201D1062485
:1005600005E0244CA04201D1072400E00824B44057
:100570003C43C5F80848D8F800409C434D68ED035B
:1005800000D51C43C8F80040104D2D1D2C689C431D
:100590004E68B60300D51C432C60D9F800409C433C
:1005A0004D68ED0200D51C43C9F80040DAF8004060
:1005B0009C434D68AD0200D51C43CAF80040521C54
:1005C000102AFFF446AFBDE8F88F0000003C014060
:1005D0004438024000300140000002400004024064
:1005E00000080240000C02400010024000140240CB
:1005F00000180240001C024001480068000C7047CF
:10060000002004E001488068704700007800002066
:1006100002488168027811448160704778000020A8
:1006200010B50848016841F400710160016841F4A7
:1006300080610160032000F009F800F005F8002057
:1006400010BD0000003C02407047000000F00701B0
:10065000054A10684FF6FF03184040EA012003499D
:1006600008431060704700000CED00E00000FA0540
:100670002DE9F04704460D46002C13D0DFF82091F9
:10068000D9F80000EFB200F00F00A8420CD289F8B0
:100690000070D9F8000000F00F00A84204D001203B
:1006A000BDE8F0870120FBE720683E4E810712D5A8
:1006B000400703D5306840F4E050306020780007F0
:1006C00003D5306840F4604030603068A16820F0A5
:1006D000F000084330602078C00731D031496068AD
:1006E0000839012808D002280BD0032809D009684E
:1006F00089070BD40120D3E70968890306D40120B8
:10070000CEE70968890101D40120C9E7316821F0E9
:10071000030101433160FFF775FF804641F2883ADB
:1007200007E0FFF76FFFA0EB0800504501D9032059
:10073000B6E73068616800F00C00B0EB810FF0D1D3
:10074000D9F8000000F00F00A84209D989F800701C
:10075000D9F8000000F00F00A84201D001209FE767
:100760002078400705D53068E16820F4E050084360
:1007700030602078000706D53068216920F4604099
:1007800040EAC100306000F039F83168064AC1F330
:100790000311515CC84005490860002080E7000053
:1007A000003C0240083802403C3100088400002030
:1007B00001480068704700008400002000B5FFF782
:1007C000F7FF04490968044AC1F38221515CC8401B
:1007D00000BD0000083802404C31000800B5FFF7AA
:1007E000E7FF04490968044AC1F34231515CC8403B
:1007F00000BD0000083802404C31000810B5184810
:100800000068184B10F00C0106D01748042902D0DC
:10081000082903D0184610BD184610BD104C241FDF
:10082000216801F03F022168490209D500231946D9
:10083000FFF724FD2168C1F38811A0FB010107E047
:100840002068C0F38810A0FB03010023FFF716FD0A
:100850002168C1F30141491C4900B0FBF1F010BD12
:10086000083802400024F40040787D012DE9F84F5B
:100870000446002C10D02078DC4DC00757D0DB4850
:1008800008300168C1F3810101290DD00068C0F36F
:100890008100022803D00EE00120BDE8F88FD34884
:1008A000001D0068400206D5286880033FD56068B7
:1008B00070BB0120F1E76068B0F5803F10D0B0F563
:1008C000A02F12D0286820F480302860286820F4F7
:1008D000802028606068E0B1FFF794FE064614E0CF
:1008E000286840F480302860F4E7286840F48020CD
:1008F0002860286840F480302860EBE7FFF782FE2C
:10090000801B642801D90320C7E728688003F5D538
:100910000DE0FFF777FE064606E0FFF773FE801B4B
:10092000642801D90320B8E728688003F5D420782B
:10093000AF4F80074FF0000849D5AC480830016838
:1009400011F00C0F09D00068C0F38100022814D107
:10095000A648001D006840020FD42868800704D50F
:10096000E068012801D0012097E72868216920F07C
:10097000F80040EAC100286029E0E068B8B1012031
:100980003860FFF73FFE064606E0FFF73BFE801BA0
:10099000022801D9032080E728688007F5D5286858
:1009A000216920F0F80040EAC10028600FE0C7F894
:1009B0000080FFF727FE064606E0FFF723FE801BB8
:1009C000022801D9032068E728688007F5D4207839
:1009D000000729D5DFF814928648616909F1740986
:1009E00089B101210160FFF70DFE064606E0FFF721
:1009F00009FE801B022801D903204EE7D9F8000028
:100A00008007F4D510E0C0F80080FFF7FBFD064634
:100A100006E0FFF7F7FD801B022801D903203CE721
:100A2000D9F800008007F4D42078400772D500265A
:100A3000DFF8B8A10AF1400ADAF80000C0000BD4D0
:100A4000DAF8000040F08050CAF80000DAF8000040
:100A500000F0805000900126DFF89CB1DBF8000028
:100A6000C00515D4DBF8000040F48070CBF800001E
:100A7000FFF7C8FD814607E0FFF7C4FDA0EB0900C2
:100A8000022801D9032008E7DBF80000C005F3D5F0
:100A9000DFF858B1A0680BF1700B012813D00528BE
:100AA00018D0DBF8000020F00100CBF80000DBF8E4
:100AB000000020F00400CBF80000A06830B3FFF77E
:100AC000A1FD81461DE0DBF8000040F00100CBF8FD
:100AD0000000F2E7DBF8000040F00400CBF8000073
:100AE000DBF8000040F00100CBF80000E5E7FFF77D
:100AF00089FDA0EB090141F28830814201D9032030
:100B0000CBE6DBF800008007F1D512E0FFF77AFDB5
:100B100081460AE015E0FFF775FDA0EB090141F2FF
:100B20008830814201D90320B7E6DBF80000800756
:100B3000F1D4012E05D1DAF8000020F08050CAF877
:100B40000000A069C0B3294908310968C1F38101D7
:100B5000022949D0022805D0C7F86080FFF752FD6E
:100B600004463CE0C7F86080FFF74CFD064606E00F
:100B7000FFF748FD801B022801D903208DE6286875
:100B80008001F5D4D4E907010843616AA26A4FF0F5
:100B9000FF33890103EB520241EA0241084394F812
:100BA0002C1040EA01611148001D016001203866E7
:100BB000FFF728FD044607E014E0FFF723FD001BC4
:100BC000022801D9032068E628688001F5D509E0EC
:100BD000FFF718FD001B022801D903205DE62868F5
:100BE0008001F5D4002058E6012056E60038024086
:100BF00000004742800E47420070004070B5044636
:100C0000002C04D094F83900002510B106E0012032
:100C100070BD84F83850204600F022F8242084F873
:100C200039002068C16821F40051C160204600F0FD
:100C300043F92068016921F490410161206841690C
:100C400021F02A0141612068C16841F40051C1606E
:100C5000E563202084F8390084F83A00002070BD54
:100C600030B587B01948016841F010010160006893
:100C700000F01000019015481438016841F001019E
:100C80000160016801F001010191016841F0010179
:100C90000160006800F0010001904FF400700290C4
:100CA000022003900120049003200590072406945D
:100CB000074D02A92846FFF7BDFB291502910694AE
:100CC00002A92846FFF7B6FB07B030BD4438024002
:100CD000000002402DE9F84304460D4691461E46A9
:100CE00094F83900202802D00220BDE8F883B5B17D
:100CF000B9F1000F13D094F83800012811D0012069
:100D000084F838000027E763212084F83900FFF7D2
:100D100079FC8046A4F82490A4F826902DE00120C8
:100D2000E3E70220E1E7E08C401EE084A068B0F534
:100D3000805F09D04346002280212046009600F0C3
:100D400045FAB0B10320D0E7434600228021204677
:100D5000009600F03BFA08B10320C6E72888216816
:100D6000C0F308004860206908B16D1C05E0AD1CA7
:100D700003E0216815F8010B4860E08C0028D2D10F
:100D80004346002240212046009600F01FFA08B199
:100D90000320AAE720203834607027700020A4E7E1
:100DA000FEE7704710B55020EFF3118480F31188EF
:100DB000BFF34F8FBFF36F8FFFF72AFC01F0F2FDF7
:100DC00084F3118810BD000030B593B0002522488F
:100DD000016841F080510160006800F0805001908E
:100DE0001E48016841F480410160006800F48040C1
:100DF00001900120029000040390022408948001D5
:100E0000099019200A904FF4A8700B900C940720B9
:100E10000D9002A8FFF72AFD00B1FEE70F200E900B
:100E20000F9410954FF4A05011904FF480501290F1
:100E300005210EA8FFF71CFC00B1FEE7FFF7DCFB65
:100E400041F20101884204D10548016841F48071F2
:100E5000016013B030BD0000403802400070004017
:100E6000003C02401048016841F4700101600F48E5
:100E7000016841F0010101600C4A00210832116053
:100E800002680B4B1A400260031D0A4A1A6002688E
:100E900022F48022026005480C30016002495806A5
:100EA000803908607047000088ED00E0003802409B
:100EB000FFFFF6FE103000242DE9F04104462068C3
:100EC000016921F44052E168114301612068C26860
:100ED00049F20C618A432369A168E5691943636992
:100EE0002B4319431143C1602068416921F44071CB
:100EF000A2690A434261E069B24AB34964253226D5
:100F0000B0F5004F59D02068884201D090427DD181
:100F1000FFF764FC00EBC00101EB00106168890081
:100F2000B0FBF1F7FFF75AFC00EBC00101EB00103A
:100F300061688900B0FBF1F0B0FBF5F06FF01801CB
:100F4000484307EB800006EB0010B0FBF5F000F023
:100F5000F007FFF743FC00EBC00101EB00106168F4
:100F60008900B0FBF1F0B0FBF5F007EB0017FFF7DD
:100F700035FC00EBC00101EB001061688900B0FB9B
:100F8000F1F8FFF72BFC00EBC00101EB00106168EA
:100F90008900B0FBF1F0B0FBF5F06FF018014843A9
:100FA00008EB800006EB0010B0FBF5F0216800F0C4
:100FB0000F0038448860BDE8F0812068884201D085
:100FC000904256D1FFF70AFC00EBC00101EB001084
:100FD00061684900B0FBF1F0B0FBF5F00701FFF7E5
:100FE000FDFB00EBC00101EB001061684900B0FBA4
:100FF000F1F8FFF7F3FB00EBC00101EB00106168B3
:101000004900B0FBF1F0B0FBF5F000E086E06FF0D6
:101010001801484308EB800006EBC000B0FBF5F078
:1010200000F0F80007EB4007FFF7D8FB00EBC0012A
:1010300001EB001061684900B0FBF1F8FFF7CEFB4F
:1010400000EBC00101EB001061684900B0FBF1F05A
:10105000B0FBF5F06FF01801484308EB800006EB99
:10106000C000B0FBF5F0216800F00700384488604C
:10107000A1E7FFF7A3FB00EBC00101EB00106168E3
:101080004900B0FBF1F0B0FBF5F00701FFF796FB6C
:1010900000EBC00101EB001061684900B0FBF1F802
:1010A000FFF78CFB00EBC00101EB00106168490009
:1010B000B0FBF1F0B0FBF5F06FF01801484308EB1E
:1010C000800006EBC000B0FBF5F000F0F80007EB85
:1010D0004007FFF773FB00EBC00101EB00106168F4
:1010E0004900B0FBF1F8FFF769FB00EBC00101EB31
:1010F000001061684900B0FBF1F0B0FBF5F06FF053
:101100001801484308EB800006EBC000B0FBF5F087
:10111000216800F00700384488604CE7FFF74EFB79
:1011200000EBC00101EB001061688900B0FBF1F732
:10113000FFF744FB00EBC00101EB00106168890080
:10114000B0FBF1F0B0FBF5F06FF01801484307EB8E
:10115000800006EB0010B0FBF5F000F0F007FFF7A1
:101160002DFB00EBC00101EB001061688900B0FBB2
:10117000F1F0B0FBF5F007EB0017FFF71FFB00EBFA
:10118000C00101EB001061688900B0FBF1F8FFF7C6
:1011900015FB00EBC00101EB001061688900B0FB9A
:1011A000F1F0B0FBF5F06FF01801484308EB800058
:1011B00006EB0010B0FBF5F0216800F00F0038449A
:1011C0008860F8E600140140001001402DE9F0416C
:1011D00004460E4617469846069D1DE0681C1BD027
:1011E0002DB1FFF70FFAA0EB0800A84214D9206830
:1011F000C16821F4D071C1602068416921F001010A
:101200004161202084F8390084F83A00002084F8F5
:1012100038000320BDE8F0812068006836EA00004D
:1012200004D00020B842D9D00020F3E70120F9E72C
:10123000FEE700000FB4054B10B503A9044A02985D
:1012400000F02CF810BC5DF814FB0000851D0008B0
:10125000880000200FB4084B10B504A902AA039817
:1012600000F01CF8044602A9002000F048FA2046CD
:1012700010BC5DF814FB0000FF16000802E008C86F
:10128000121F08C1002AFAD170477047002001E000
:1012900001C1121F002AFBD1704700002DE9FF4F4A
:1012A0008DB00F460546002606E025280BD0DDE967
:1012B0000F1290476D1C761C28780028F5D111B0CC
:1012C0003046BDE8F08F0024A246A1460122EC4939
:1012D00000E0044315F8013F203B02FA03F0084206
:1012E000F7D128782A2810D06FF02F022878A0F1A3
:1012F0003001092914D80AEB8A0102EB410144F0BC
:10130000020400EB010A6D1CF0E701CF5FEA000A5E
:1013100003D544F40054CAF1000A44F002046D1CE1
:1013200028782E2817D115F8010F44F004042A2834
:101330000ED06FF02F022878A0F1300109290AD8C9
:1013400009EB890102EB410100EB01096D1CF2E799
:1013500057F8049B6D1C28786C280FD006DC4C28AD
:1013600017D068280DD06A2814D104E0742810D052
:101370007A280FD10DE044F400140AE044F48014FC
:1013800001E044F440146978814202D104F58014EC
:101390006D1C6D1C2A786E2A1FD00CDC632A31D09C
:1013A00004DC002A8BD0582A11D1A3E0642A68D02B
:1013B000692A0CD165E0732A2ED004DC6F2A73D021
:1013C000702A04D19BE0752A6FD0782A6ED010461F
:1013D000DDE90F129047761C50E1C4F30250022859
:1013E00006D0032809D0042801CF09D0066045E1C2
:1013F00001CFF117C0E9006140E101CF06803DE176
:1014000006703BE117F8040B8DF8000000208DF802
:101410000100EB46012003E057F804BB4FF0FF301A
:1014200061074FF0000102D40DE008F10101884688
:1014300049450FDA8045F8DB1BF808100029F4D184
:1014400008E008F1010188468142FADB1BF8081028
:101450000029F6D1DDE90F23AAEB080081462146D9
:1014600000F036F9304400EB080604E0DDE90F1225
:101470001BF8010B9047B8F10108F7D22146484606
:10148000F7E00A21C4F302534FF0000B0891022B3E
:1014900004D001CFC117032B09D00AE0FF1D27F0AC
:1014A0000707F7E8020108E032E01FE020E000B2A1
:1014B000C117042B01D140B2C117031E71F1000303
:1014C00007DA4FF0000CD0EB0C006CEB01012D2380
:1014D00002E0230504D52B238DF82430012303E0FB
:1014E000E30701D02023F7E7984658E00A2110E0EF
:1014F00010210EE010204FF0000B08900CE010219E
:101500004FF0000B44F004044FF00809089103E089
:1015100008214FF0000B0891C4F30253022B04D0B2
:1015200001CF0021032B06D006E0FF1D27F007079F
:10153000F7E8020103E080B2042B00D1C0B24FF003
:10154000000823072BD5702A07D0DDF820C08CF0C7
:10155000100C5CEA0B0C05D00EE040238DF8243013
:10156000012308E050EA010306D030238DF824302F
:101570008DF8252002239846DDF820C08CF0080C59
:101580005CEA0B0C0BD150EA010301D1630706D5CD
:1015900030238DF824304FF00108A9F10109582AB1
:1015A00004D038A20B9208AA0A920BE03AA2F9E7FB
:1015B0005B46089AFEF762FE0B9B9B5C0A9A521EE2
:1015C0000A92137050EA0102F2D10A98ADEB0000C2
:1015D00000F1200B600702D524F4803401E04FF0C5
:1015E0000109D94502DDA9EB0B0000E0002000EB6A
:1015F0000B0141440890AAEB010AE00306D4DDE99F
:101600000F232146504600F063F806444FF00009CE
:1016100008E009A911F80900DDE90F12904709F166
:101620000109761CC145F4DBE0030CD5DDE90F238D
:101630002146504600F04CF8064404E0DDE90F1264
:1016400030209047761C0899481E08900029F5DC48
:1016500008E00A980A990078491C0A91DDE90F12FE
:101660009047761CBBF10001ABF1010BF1DC214688
:101670005046DDE90F2300F019F806446D1C1BE607
:101680000928010030313233343536373839616258
:10169000636465660000000030313233343536371C
:1016A0003839414243444546000000002DE9F041ED
:1016B000044600251E461746880404D405E0394632
:1016C0002020B0476D1C641EF9D52846BDE8F08186
:1016D0002DE9F041044600251E469046C80301D579
:1016E000302700E02027880404D505E0414638462D
:1016F000B0476D1C641EF9D52846BDE8F0810A6824
:10170000531C0B60107070472DE9F0470446294DBB
:10171000AB680020D5F80C8000272E4695F801A074
:1017200096F80290D6E9045605EB060CBAF1000FC4
:1017300013D0B9F1000F10D11F4E0120D6F818A018
:10174000C4F800A07669361FAE4206D3B44504D370
:10175000012902D9022066600127B9F1000F08D0E3
:101760009A4201D21A4604E003EB0806964200D2E0
:10177000324603EB080618E013681B1F5FEAC378C4
:1017800012D0AB4210D39C450ED310280CD2884205
:101790000AD2022804D11FB1D4F80480984503D09E
:1017A0008046401C44F82830121D9642E4D8BDE81B
:1017B000F087000010000020900100202DE9F04784
:1017C0008EB006460C4620225C4906A8FEF787FD2F
:1017D0005B4FBD68D7F80C90387858B1787898B1DD
:1017E000564A58A1143A5AA0FFF724FD60A0FFF70B
:1017F00021FDFEE7514A5FA1143A55A0FFF71AFDFB
:101800005BA0FFF717FDFEE74FF0010A87F801A084
:101810005AA0FFF70FFD56A0FFF70CFD00F0EAF805
:10182000DFF81881A8F1BC08D8F82800FFF702FDFE
:101830004FA0FFF7FFFC04F12001304600F02AFE24
:101840000646AE4203D305EB0900B04201D287F849
:1018500002A032464946284600F010F9B878484DB3
:1018600000283FD1D8F82C00FFF7E4FC40A0FFF798
:10187000E1FC27682F6060686860A168A960E26881
:10188000EA6023692B6163696B61A369AB61E369FA
:10189000EB61DDE90843CDE90141CDE90332DDE942
:1018A000061300903A4637A0FFF7C4FC30A0FFF7BC
:1018B000C1FCAA69E8690D990C9BCDE90132CDE91B
:1018C0000310686900900B9B2A692EA00A99FFF704
:1018D000B1FC27A0FFF7AEFC35A0FFF7ABFC24A0BE
:1018E000FFF7A8FC4248006845F8200F4048001D5B
:1018F000007828713E4810300068A8603C48401DC0
:10190000007828733A481430006828613848801DF0
:101910000088A882364808300068A86134480C3036
:101920000088E861324818300088286200F00AF91F
:10193000304600F00DFB0EB0BDE8F0871C3100080A
:1019400010000020216F6E5F6661756C74000000EE
:101950002825732920686173206173736572742070
:101960006661696C65642061742025732E00000037
:101970000D0A0000696E69745F6F6B000000000063
:1019800090010020202025733A202530387820202F
:1019900025733A2025303878202025733A202530C9
:1019A0003878202025733A20253038780000000050
:1019B0003D3D3D3D3D3D3D3D3D3D3D3D3D3D3D3D57
:1019C0003D3D3D3D3D3D3D3D3D3D3D3D3D3D3D3D47
:1019D0003D3D3D3D3D3D3D3D3D3D3D3D3D3D3D3D37
:1019E0003D3D3D3D3D3D3D3D3D3D3D3D3D3D0000A1
:1019F00024ED00E010B50748074BA3F12002006872
:101A0000A2F12001FFF716FCBDE8104003A0FFF78C
:101A100011BC000060300008E00000200D0A00004A
:101A200070B50D461446014620220E48FEF77BFC99
:101A30000C48202229462030FEF775FC0948202258
:101A400021464030FEF76FFC084807498160084A8C
:101A5000511AC16007490161074A511A41610121C8
:101A6000017070BDA0000020D08400201000002074
:101A7000D088002000000008643700082DE9F041FC
:101A8000064614461B481C4F75188278002A17D04A
:101A9000007938B121467869FFF7CCFB17A0FFF732
:101AA000C9FB06E02146B869FFF7C4FB13A0FFF7A6
:101AB000C1FBB44201D2344602E0A54200D22C461A
:101AC000F868FFF7B7FB0DA0FFF7B4FB08E021466D
:101AD0000BA02268FFF7AEFB08A0FFF7ABFB241DAD
:101AE000A542F4D80DA0FFF7A5FBBDE8F04103A087
:101AF000FFF7A0BB10000020603000080D0A0000B6
:101B00002020616464723A2025303878202020201B
:101B1000646174613A202530387800003D3D3D3DD8
:101B20003D3D3D3D3D3D3D3D3D3D3D3D3D3D3D3DE5
:101B30003D3D3D3D3D3D3D3D3D3D3D3D3D3D3D3DD5
:101B40000000000070B58C4D8C4C95F83800800773
:101B500005D5206BFFF76EFB89A0FFF76BFBA86B29
:101B600040007DD595F82400F0B3C00705D0606B28
:101B7000FFF760FB82A0FFF75DFB95F8240080076C
:101B800005D5A06BFFF756FB7DA0FFF753FB95F83B
:101B90002400000705D5E06BFFF74CFB78A0FFF7AA
:101BA00049FB95F82400C00605D5206CFFF742FBE1
:101BB00073A0FFF73FFB95F82400800605D5606C05
:101BC000FFF738FB6EA0FFF735FB95F82400010600
:101BD0000DD5C10701D1800709D5A96AD4F88C00B9
:101BE000FFF728FB66A000E001E0FFF723FB95F874
:101BF0002C00B0B3C00705D0A06CFFF71BFB60A0A2
:101C0000FFF718FB95F82C00800705D5E06CFFF76F
:101C100011FB5BA0FFF70EFB95F82C00400705D5E4
:101C2000206DFFF707FB56A0FFF704FB95F82C008B
:101C3000000705D5606DFFF7FDFA51A0FFF7FAFA2E
:101C400095F82C00C00605D5A06DFFF7F3FA4CA05F
:101C5000FFF7F0FA95F82C00800608D5E06D01E05A
:101C60004DE012E0FFF7E6FA45A0FFF7E3FA95F83A
:101C70002C00010609D5800707D5296BD4F8900000
:101C8000FFF7D8FA3EA0FFF7D5FAA88EB8B3C00781
:101C900005D0206EFFF7CEFA39A0FFF7CBFA95F802
:101CA0003400800705D5606EFFF7C4FA34A0FFF753
:101CB000C1FA95F83400400705D5A06EFFF7BAFACF
:101CC0002FA0FFF7B7FA95F83400000705D5E06EAE
:101CD000FFF7B0FA2AA0FFF7ADFAA88EC00505D528
:101CE000206FFFF7A7FA26A0FFF7A4FAA88E8005B9
:101CF00005D5606FFFF79EFA21A0FFF79BFAA86B4E
:101D0000002837DAE86B002834D0C00705D0A06F70
:101D1000FFF790FA1AA0FFF78DFA95F83C008007BC
:101D200005D5E06FFFF786FA15A0FFF783FA95F85F
:101D30003C00400706D5D4F88000FFF77BFA10A0DE
:101D4000FFF778FA95F83C00000706D5D4F8840030
:101D5000FFF770FA0AA0FFF76DFA95F83C00C0068D
:101D600008D5D4F88800FFF765FABDE8704004A0F4
:101D7000FFF760BA70BD00009001002060300008DD
:101D80000D0A000013B54FF47A7301226946024828
:101D9000FEF7A0FF00981CBD908400201CB5FEF744
:101DA0003FFCFFF711F8FEF7FDFAFEF72DFB29A225
:101DB00028A12AA0FFF734FE0421052000F008FE28
:101DC0002A494860C0B12AA0FFF734FA2748032106
:101DD0000830CDE900104FF40C74002322462CA1EA
:101DE0002E4800F0DBFF01280AD02DA0FFF722FAD1
:101DF0002FA0FFF71FFAFEE732A0FFF71BFAFEE75E
:101E000027A0FFF717FA35A0FFF714FA17480221A9
:101E10000C30CDE900100023224637A1394800F0EC
:101E2000BDFF012806D01EA0FFF704FA36A0FFF779
:101E300001FAFEE71AA0FFF7FDF938A0FFF7FAF95B
:101E400000F002FD16A0FFF7F5F93BA0FFF7F2F94D
:101E5000FEE7000056312E302E3000004D696E69CD
:101E600052544F535F4465627567000000000020C4
:101E7000517565756520637265617465642073755D
:101E8000636365737366756C6C79210A00000000EA
:101E90007461736B315F7461736B0000B12400086F
:101EA0000D0A5B494E464F5D203E3E20000000007B
:101EB0007461736B3120637265617465206661695A
:101EC0006C65640051756575652063726561746940
:101ED0006F6E206661696C6564210A007461736BC2
:101EE0003120637265617465207375636365737314
:101EF00066756C6C790000007461736B325F74619D
:101F0000736B00006D2500087461736B322063727F
:101F100065617465206661696C6564007461736BEA
:101F200032206372656174652073756363657373D2
:101F300066756C6C7900000049742073686F756C6D
:101F4000646E27742072756E2068657265000000EB
:101F50002DE9F04391B00446402101A8FEF7D8F9DD
:101F60002246102101A8FFF7CFFB05460024164F9B
:101F70000DF104084FF020090BE004EBC4003844D5
:101F800058F82420064611A1FFF764F986F8089056
:101F9000641CAC42F1D30F4875B10B49009705EBB7
:101FA000C503C0690CA26039FFF744F90CA0FFF724
:101FB00041F911B0BDE8F083006AFFF73BF908A0D2
:101FC000FFF738F9F5E70000000100202530386CF4
:101FD00078000000603000082E6178660000000084
:101FE0000D0A000070B50446124E35693068001DB8
:101FF00000F008FB38B93068012190F82C008140CE
:10200000B0688843B0602C4430684460AC4206D26B
:102010003168306B091DBDE8704000F013BB3168BA
:10202000F06A091D00F00EFBB069844200D2B46171
:1020300070BD00002800002070B5044600F026FBAB
:102040001B4D6868401C6860286810B1E86838B1AA
:102050000CE02C606868012808D100F0E3F805E086
:102060002868E16AC06A884200D82C60E06A0121D1
:10207000AA6881401143A9600E4900EB800001EB82
:102080008000211D00F0F6FA00F036FBE868002819
:102090000CD02868E16AC06A884207D206494FF02E
:1020A00080500860BFF34F8FBFF36F8F70BD00008B
:1020B00028000020D401002004ED00E030B40B46DD
:1020C000026CC1681144C1604468A14201D3016837
:1020D000C160C16830BC1846FEF701B970B504464E
:1020E000A56B226CA068FEF7FAF8216CA068084482
:1020F000A0606168884201D32068A0606D1CA56360
:1021000070BD00004FF400410F48420706D0C01DCB
:1021100020F007000C49411AC1F500410B4A10603C
:10212000002353600144083921F00701103A11607F
:102130004B600B600B1A4360016040689060506018
:102140004FF00040D06070479004002070000020E5
:10215000064A07494FF080501368012BFCD90860EC
:10216000BFF34F8FBFF36F8FF6E70000D40100205D
:1021700004ED00E030B4044618460260C463016414
:1021800030BC00F0F3BC00002DE9F047DDE9087831
:102190000A9C81460D469A46206B521E00EB820037
:1021A00020F00706700704D0682215A119A0FFF7D8
:1021B00041F800202218295C82F83410295C11B102
:1021C000401C1028F6D3002084F84300E762201D4D
:1021D00000F035FA246104F1180000F030FAC7F17C
:1021E0002000A061646252464946304600F040F942
:1021F0002060B8F1000F01D0C8F80040BDE8F087BA
:102200002E2E5C4D696E6952544F535C7461736B32
:102210002E6300004572726F723A25732C25640D8F
:102220000A00000070B500240B4D04EB840005EBA0
:10223000800000F0F9F9641C202CF6D3074800F068
:10224000F3F90648143000F0EFF905480349C1627C
:102250001431016370BD0000D4010020540400203B
:102260002800002030B5134900E011460A68824278
:10227000FBD34B685C18844203D140681844486023
:1022800008460D6844682318AB420DD1094B103B3A
:102290001B689A4206D05268224442600A6812685B
:1022A000026002E0036000E00260814200D008604A
:1022B00030BD00007000002010B5044600F0E6F9C3
:1022C000A06B20B1002400F017FA204610BD0124B5
:1022D000F9E710B5044600F0D9F9A06BE16B88422C
:1022E00001D1012400E0002400F006FA204610BDD0
:1022F0000748C16A0968002905D0C16AC968C96868
:102300004968816170474FF0FF318161704700007B
:102310002800002008480068401C04D04D2207A176
:102320000FA0FEF787FF502080F31188BFF34F8F77
:10233000BFF36F8FFEE700005C0000202E2E5C4D87
:10234000696E6952544F535C70726F7461626C6550
:102350005C525644535C706F72742E630000000030
:102360004572726F723A25732C25640D0A000000C5
:102370002DE9F041044600F089F994F9455004F143
:10238000240609E0606A48B1304600F0A5FD08B1B6
:1023900000F006FA6D1E6DB2002DF3DC4FF0FF3633
:1023A00084F8456000F0A8F900F070F994F9445001
:1023B00004F1100709E0206948B1384600F08CFDAF
:1023C00008B100F0EDF96D1E6DB2002DF3DC84F85C
:1023D0004460BDE8F04100F08FB900002DE9F04104
:1023E00005460026214F3868002801D1FFF78AFEF4
:1023F000F868054236D13DB10835680704D005F0CC
:102400000700C0F10800054465B37868854229D803
:10241000164910310846046801E021460446606808
:10242000A84202D220680028F7D13868844219D027
:102430000E680836206808606068411B102904D9BE
:10244000601941606560FFF70DFF61687868401AA8
:102450007860BA68904200D2B860F8680143616061
:10246000002020603046BDE8F081000060000020C0
:1024700024384FF08073036221F00101C1610449E7
:10248000816142606FF0020140F82019704700003E
:1024900015230008054A40F30010401CD0700028A6
:1024A00002D001F148007047084670471000002034
:1024B00008B50020009015A0FEF7BCFE17A0FEF79F
:1024C000B9FE1C4D002411A0FEF7B4FE55F82410EF
:1024D00019A0FEF7AFFE641CE4B2052CF3D30098FC
:1024E000401C00901A484FF0FF326946406800F0E7
:1024F0007DFB012806D105A0FEF79CFE15A00099E2
:10250000FEF798FE1848FDF765FFDBE70D0A5B490B
:102510004E464F5D203E3E200000000050726F642A
:1025200075636572207461736B2073746172746576
:10253000640000008C0000207461736B32207265AF
:10254000636569766520646174613A256C75000085
:10255000000000207461736B312073656E74206419
:102560006174613A256C750080841E0010A0FEF72E
:1025700061FE13A0FEF75EFE174D184C4FF0FF37BB
:10258000002620783A4605EB8001606800F052FA98
:102590002178491CC9B22170052900D32670012871
:1025A000EFD003A0FEF746FE0DA0FEF743FEE8E7DE
:1025B0000D0A5B494E464F5D203E3E200000000064
:1025C000436F6E73756D6572207461736B207374E5
:1025D00061727465640000008C000020000000201F
:1025E000436F6E73756D65723A204661696C656400
:1025F00020746F207265636569766520646174611B
:102600000A0000000169D0E901329A60D0E9012393
:102610005A604A68824201D182684A60002202619F
:102620000868401E0860704700F1080141604FF0E3
:10263000FF328260C16001610021016070470021AA
:102640000161704730B50C68621C02D000F10802CD
:1026500002E0026904E01A4653681D68A542FAD9EF
:1026600053684B6099608A60516008610168491C39
:10267000016030BD42684A6093688B60936859601E
:10268000916008610168491C01607047502080F327
:102690001188BFF34F8FBFF36F8F08490868401C44
:1026A0000860012809D10648006810F0FF0F04D027
:1026B000372204A10CA0FEF7BDBD70475C000020CE
:1026C00004ED00E02E2E5C4D696E6952544F535C50
:1026D00070726F7461626C655C525644535C706FCB
:1026E00072742E63000000004572726F723A257397
:1026F0002C25640D0A00000010B5084C2068002845
:1027000004D1402206A10FA0FEF794FD2068401ED0
:102710002060002801D180F3118810BD5C000020EA
:102720002E2E5C4D696E6952544F535C70726F74FB
:1027300061626C655C525644535C706F72742E63B8
:10274000000000004572726F723A25732C25640DEB
:102750000A00000030B4002810D00838084B416847
:10276000DA6811420AD00468002C07D19143416015
:102770005A681144596030BCFFF774BD30BC7047D3
:102780006000002005480C210068B0FBF1F14FF01B
:10279000E020491E4161072101617047840000204B
:1027A00001490120C86170472800002070B5044627
:1027B0000D46002C05D140F2612207A10BA0FEF7C7
:1027C00039FD0E48016820461831FFF73BFF2846C7
:1027D000BDE87040FFF706BC2E2E5C4D696E695255
:1027E000544F535C7461736B2E6300004572726FBB
:1027F000723A25732C25640D0A0000002800002081
:1028000010B50446002C05D140F23A2204A109A0DB
:10281000FEF710FD0B48416921600069606010BD42
:102820002E2E5C4D696E6952544F535C7461736B0C
:102830002E6300004572726F723A25732C25640D69
:102840000A000000280000201CB515480024CDE92E
:1028500000402346802213A1144800F09FFA01286B
:102860000AD0401C1BD102B040F22312BDE8104038
:102870000FA114A0FEF7DEBC502080F31188BFF337
:102880004F8FBFF36F8F06484FF0FF3124388161BF
:102890000121C1600461BDE81C4000F063B81CBDAB
:1028A0004C00002049444C45000000005121000824
:1028B0002E2E5C4D696E6952544F535C7461736B7C
:1028C0002E6300004572726F723A25732C25640DD9
:1028D0000A0000000248816A491C816270470000BA
:1028E0002800002070B5144DA86A002802D00120ED
:1028F000E86170BD0020E861A868B0FA80F0C0F11E
:102900001F000E4E00EB800456F8240028B940F258
:102910000F220BA10FA0FEF78DFC06EB840041688F
:102920004968416000F10802914201D14968416063
:102930004068C068286070BD28000020D4010020D5
:102940002E2E5C4D696E6952544F535C7461736BEB
:102950002E6300004572726F723A25732C25640D48
:102960000A00000010B50C48016841F470010160D4
:10297000016841F070410160FFF704FF0749002042
:102980000860FDF71BFC0648016841F0404101600A
:10299000FDF704FC002010BD20ED00E05C000020ED
:1029A00034EF00E010B5502080F31188BFF34F8F53
:1029B000BFF36F8F00F020FA18B104494FF0805038
:1029C0000860002080F3118810BD000004ED00E0D5
:1029D00070B505460E46002D04D19C220CA111A015
:1029E000FEF728FC26B99D2209A10EA0FEF722FCC5
:1029F00005FB06F04830FFF7F1FC044634B104F162
:102A00004802234631462846FFF7B4FB204670BDF6
:102A10002E2E5C4D696E6952544F535C717565750D
:102A2000652E63004572726F723A25732C25640D12
:102A30000A0000002DE9F74783B004468A460026C5
:102A4000002C05D140F24D123EA143A0FEF7F2FB4F
:102A5000BAF1000F05D14FF4A7723AA13EA0FEF7DC
:102A6000E9FB00274FF08058DFF8FC90FFF70EFEDF
:102A7000A56BC5B151462046FFF720FB6D1EA5632F
:102A8000206950B104F1100000F026FA28B1C9F80D
:102A90000080BFF34F8FBFF36F8FFFF72DFE012034
:102AA00006B0BDE8F087059808B126B107E0FFF74A
:102AB00023FE0020F4E701A8FFF7A2FE0126FFF79E
:102AC0001BFEFFF707FFFFF7E1FD94F94400401CF0
:102AD00001D184F8447094F94500401C01D184F878
:102AE0004570FFF709FE05A901A800F013F958B1D8
:102AF0002046FFF73DFC00F03DFA2046FFF7DCFBE7
:102B00000028B3D00020CBE72046FFF7D5FB90B1DB
:102B100004F124000599FFF749FE2046FFF728FC41
:102B200000F028FA0028A1D1C9F80080BFF34F8F28
:102B3000BFF36F8F9AE72046FFF71AFC00F01AFAEE
:102B400094E700002E2E5C4D696E6952544F535C21
:102B500071756575652E63004572726F723A2573E3
:102B60002C25640D0A00000004ED00E010B50446B9
:102B7000002C04D1772214A118A0FEF75BFBFFF70D
:102B800085FDD4E90F12206801FB0200606000207F
:102B9000A0632068A060E06B226C2168401E00FBEF
:102BA0000210E0604FF0FF3084F8440084F84500E4
:102BB00004F11000FFF738FD04F12400FFF734FDA5
:102BC000FFF79AFD012010BD2E2E5C4D696E6952F3
:102BD000544F535C71756575652E63004572726F55
:102BE000723A25732C25640D0A0000002DE9F74385
:102BF00082B0044689460025002C04D1DC223BA18A
:102C00003FA0FEF717FBB9F1000F04D1DD2237A179
:102C10003BA0FEF70FFB00264FF08057DFF8F08057
:102C2000FFF734FDA06BE16B884216D2494620467F
:102C3000FFF754FA606A50B104F1240000F04CF937
:102C400028B1C8F80070BFF34F8FBFF36F8FFFF745
:102C500053FD012005B0BDE8F083049808B125B10B
:102C600007E0FFF749FD0020F4E76846FFF7C8FDDD
:102C70000125FFF741FDFFF72DFEFFF707FD94F952
:102C80004400401C01D184F8446094F94500401C84
:102C900001D184F84560FFF72FFD04A9684600F0D4
:102CA00039F830B12046FFF763FB00F063F90020EC
:102CB000D0E72046FFF70DFB90B104F11000049916
:102CC000FFF774FD2046FFF753FB00F053F900288F
:102CD000A6D1C8F80070BFF34F8FBFF36F8F9FE787
:102CE0002046FFF745FB00F045F999E72E2E5C4D95
:102CF000696E6952544F535C71756575652E63003A
:102D00004572726F723A25732C25640D0A0000001B
:102D100004ED00E070B504460D46002C05D140F2EC
:102D2000432214A118A0FEF785FA2DB94FF41172B1
:102D300010A115A0FEF77EFAFFF7A8FC1649086956
:102D4000226849698A4204D06168814201D801241D
:102D50000CE06168411A2868814206D2401A286056
:102D60002046FFF74DFD002400E00124FFF7C4FCDE
:102D7000204670BD2E2E5C4D696E6952544F535CD7
:102D80007461736B2E6300004572726F723A257323
:102D90002C25640D0A000000280000202DE9FE4FBC
:102DA0008146DDE90C788A4616469B46B000FFF75F
:102DB00015FB054628000AD04420FFF70FFB044608
:102DC0000CB1256304E02846FFF7C4FC00E00024B2
:102DD00074B1CDE900785B463246514648460294CC
:102DE000FFF7D2F92046FFF727F90120BDE8FE8F53
:102DF0004FF0FF30FAE700002DE9F04100262B4F9D
:102E0000B86A002808D0386A401C3862F86900B1F6
:102E100001263046BDE8F0813D696D1C3D618DB9EC
:102E2000F86A006828B140F2CD1221A125A0FEF772
:102E300001FAF86A396BF96238637869401C786185
:102E4000FFF756FAB869DFF88C8085420DD3F86A2F
:102E5000006838B1F86AC068C468606885420ED2FC
:102E6000B86102E04FF0FF30B8613868C06A00EB2B
:102E7000800058F820000128C8D90126C6E7201D87
:102E8000FFF7C0FBE06A0121BA6881401143B960D5
:102E900000EB800008EB8000211DFFF7EBFBE06AF0
:102EA0003968C96A8842D2D30126D0E728000020B9
:102EB0002E2E5C4D696E6952544F535C7461736B76
:102EC0002E6300004572726F723A25732C25640DD3
:102ED0000A000000D40100202DE9F041C068C46858
:102EE000002C05D140F21B2216A11BA0FEF7A2F96F
:102EF00004F118000746FFF785FB1B4DAA6A01265F
:102F000062B139461948FFF7B5FBE06A2968C96A1A
:102F1000884215D90120EE61BDE8F081201DFFF740
:102F200071FBE06AAA6806FA00F11143A960104932
:102F300000EB800001EB8000211DFFF79BFBE4E725
:102F40000020E9E72E2E5C4D696E6952544F535CA8
:102F50007461736B2E6300004572726F723A257351
:102F60002C25640D0A000000280000207C040020AD
:102F7000D40100202DE9F041002400272B4DA86A40
:102F8000002805D140F23B1229A12EA0FEF752F9EC
:102F9000FFF77CFBA86A401EA862A86AF0BB6868BD
:102FA000E0B3DFF8B08001261DE0D8F80C00C4685B
:102FB00004F11800FFF726FB201DFFF723FBE06A52
:102FC000AA6806FA00F11143A960234900EB8000CA
:102FD00001EB8000211DFFF74DFBE06A2968C96AFB
:102FE000884200D3EE61D8F800000028DDD10CB192
:102FF000FFF77EF92C6A44B1FFF7FEFE00B1EE61E7
:10300000641E002CF8D100202862E86930B1012745
:10301000124938070860BFF34F8F00E001E0BFF3AB
:103020006F8FFFF769FB3846BDE8F081280000206C
:103030002E2E5C4D696E6952544F535C7461736BF4
:103040002E6300004572726F723A25732C25640D51
:103050000A0000007C040020D401002004ED00E000
:1030600004320008583300083C330008703100086F
:1030700098310008E43600080037000834320008B0
:1030800070330008D0320008B0320008C0310008A8
:103090000C34000854340008843300083C35000820
:1030A000043500086436000810360008BC350008F6
:1030B000E4350008C03600089C36000834360008A5
:1030C0008C340008EC320008E4330008B434000803
:1030D000143300081C370008983500083034000805
:1030E000C0330008E034000874350008903200084E
:1030F00074320008636D5F6261636B747261636553
:103100005F61737365727400636D5F6261636B749A
:10311000726163655F6661756C740000543100080C
:10312000583100085C310008603100086C3100083B
:103130006831000864310008003200080000000017
:103140000000000001020304060708090000000057
:10315000010203045230200052312000523220007C
:1031600052332000504320004C5220005231320094
:103170003D3D3D3D3D3D3D3D3D3D3D20CFDFB3CC63
:10318000B6D1D5BBD0C5CFA2203D3D3D3D3D3D3D57
:103190003D3D3D3D000000003D3D3D3D3D3D3D3D53
:1031A0003D3D3D3D20D6F7B6D1D5BBD0C5CFA22001
:1031B0003D3D3D3D3D3D3D3D3D3D3D3D0000000033
:1031C0003D3D3D3D3D3D3D3D3D3D3D3D3D3D3D3D2F
:1031D0003D3D3D3D3D3D3D3D3D20BCC4B4E6C6F7D3
:1031E000D0C5CFA2203D3D3D3D3D3D3D3D3D3D3D1A
:1031F0003D3D3D3D3D3D3D3D3D3D3D3D3D3D000079
:1032000050535200B9CCBCFEC3FBB3C6A3BA25735E
:10321000A3ACD3B2BCFEB0E6B1BEBAC5A3BA2573A7
:10322000A3ACC8EDBCFEB0E6B1BEBAC5A3BA257367
:1032300000000000B2E9BFB4B8FCB6E0BAAFCAFD06
:10324000B5F7D3C3D5BBD0C5CFA2A3ACC7EBD4CB06
:10325000D0D0A3BA61646472326C696E65202D654A
:103260002025732573202D61202D6620252E2A739D
:1032700000000000B7A2C9FAD7DCCFDFB4EDCEF36F
:10328000B5C4B5D8D6B7A3BA253038780000000049
:10329000B7A2C9FAB4E6B4A2C6F7B9DCC0EDB4ED82
:1032A000CEF3B5C4B5D8D6B7A3BA25303878000068
:1032B000D4DAD6D0B6CFBBF2C2E3BBFABBB7BEB34B
:1032C000CFC2B7A2C9FAB4EDCEF3D2ECB3A30000DB
:1032D000D4DACFDFB3CC28257329D6D0B7A2C9FA68
:1032E000B4EDCEF3D2ECB3A300000000B7A2C9FA4C
:1032F000D3C3B7A8B4EDCEF3A3ACD4ADD2F2A3BA86
:10330000CAD4CDBCC7D0BBBBB5BD2041524D20D720
:10331000B4CCAC00B7A2C9FAD3C3B7A8B4EDCEF30E
:10332000A3ACD4ADD2F2A3BAC6F3CDBCD6B4D0D040
:10333000B7C7B6D4C6EBB7C3CECA0000D4DAD6D06E
:10334000B6CFBBF2C2E3BBFABBB7BEB3CFC2B7A224
:10335000C9FAB6CFD1D40000D4DACFDFB3CC282558
:103360007329D6D0B7A2C9FAB6CFD1D400000000D5
:10337000BBF1C8A1BAAFCAFDB5F7D3C3D5BBCAA7C5
:10338000B0DC0000B7A2C9FAB4E6B4A2C6F7B9DC53
:10339000C0EDB4EDCEF3A3ACD4ADD2F2A3BAC6F374
:1033A000CDBCB4D3B2BBD4CAD0EDB7C3CECAB5C4BA
:1033B000C7F8D3F2B6C1A1A2D0B4CAFDBEDD0000E9
:1033C000B7A2C9FAB5F7CAD4B4EDCEF3A3ACD4AD65
:1033D000D2F2A3BACAFDBEDDBCE0B2E2B5E3C6A537
:1033E000C5E40000B7A2C9FAD3C3B7A8B4EDCEF3C1
:1033F000A3ACD4ADD2F2A3BACEDED0A7B5C4D2EC82
:10340000B3A3B7B5BBD8C2EB00000000B7A2C9FA9E
:10341000D3B2B4EDCEF3A3ACD4ADD2F2A3BAC8A16B
:10342000D6D0B6CFCFF2C1BFCAB1B3F6B4ED00006B
:10343000B7A2C9FAB5F7CAD4B4EDCEF3A3ACD4ADF4
:10344000D2F2A3BAD6B4D0D020424B505420D6B832
:10345000C1EE0000B7A2C9FAB4E6B4A2C6F7B9DC5F
:10346000C0EDB4EDCEF3A3ACD4ADD2F2A3BAC6F3A3
:10347000CDBCB4D3B2BBD4CAD0EDB7C3CECAB5C4E9
:10348000C7F8D3F2C8A1D6B8C1EE0000B7A2C9FAF6
:10349000D3C3B7A8B4EDCEF3A3ACD4ADD2F2A3BAE4
:1034A000C6F3CDBCD6B4D0D0CEB4B6A8D2E5D6B88B
:1034B000C1EE0000B7A2C9FAD3C3B7A8B4EDCEF3EA
:1034C000A3ACD4ADD2F2A3BAC6F3CDBCD6B4D0D09F
:1034D000D0ADB4A6C0EDC6F7D6B8C1EE000000006E
:1034E000B7A2C9FAB5F7CAD4B4EDCEF3A3ACD4AD44
:1034F000D2F2A3BAB7A2C9FACFF2C1BFB2B6BBF13A
:1035000000000000B7A2C9FAB4E6B4A2C6F7B9DC5D
:10351000C0EDB4EDCEF3A3ACD4ADD2F2A3BAC8EBF8
:10352000D5BBCAB1C6F3CDBCB7C3CECAB2BBB1BB63
:10353000D4CAD0EDB5C4C7F8D3F20000B7A2C9FA17
:10354000B4E6B4A2C6F7B9DCC0EDB4EDCEF3A3ACDB
:10355000D4ADD2F2A3BAB3F6D5BBCAB1C6F3CDBCD3
:10356000B7C3CECAB2BBB1BBD4CAD0EDB5C4C7F8DD
:10357000D3F20000B7A2C9FAB5F7CAD4B4EDCEF3BE
:10358000A3ACD4ADD2F2A3BACDE2B2BFB5F7CAD4E0
:10359000C7EBC7F300000000B7A2C9FAB5F7CAD459
:1035A000B4EDCEF3A3ACD4ADD2F2A3BA4E56494398
:1035B00020CDA3BBFAC7EBC7F3000000B7A2C9FA3E
:1035C000D7DCCFDFB4EDCEF3A3ACD4ADD2F2A3BA47
:1035D000BEABC8B7B5C4CAFDBEDDD7DCCFDFB4ED26
:1035E000CEF30000B7A2C9FAD7DCCFDFB4EDCEF33B
:1035F000A3ACD4ADD2F2A3BAB2BBBEABC8B7B5C40C
:10360000CAFDBEDDD7DCCFDFB4EDCEF30000000095
:10361000B7A2C9FAD7DCCFDFB4EDCEF3A3ACD4ADFB
:10362000D2F2A3BAD6B8C1EED7DCCFDFB4EDCEF379
:1036300000000000B7A2C9FAD7DCCFDFB4EDCEF3AB
:10364000A3ACD4ADD2F2A3BAB6E8D0D4B1A3B4E659
:10365000B8A1B5E3D7B4CCACCAB1B7A2C9FAB4ED3E
:10366000CEF30000B7A2C9FAB4E6B4A2C6F7B9DC3B
:10367000C0EDB4EDCEF3A3ACD4ADD2F2A3BAB6E8AC
:10368000D0D4B1A3B4E6B8A1B5E3D7B4CCACCAB139
:10369000B7A2C9FAB4EDCEF300000000B7A2C9FA90
:1036A000D7DCCFDFB4EDCEF3A3ACD4ADD2F2A3BA66
:1036B000C8EBD5BBCAB1B7A2C9FAB4EDCEF30000CE
:1036C000B7A2C9FAD7DCCFDFB4EDCEF3A3ACD4AD4B
:1036D000D2F2A3BAB3F6D5BBCAB1B7A2C9FAB4ED58
:1036E000CEF30000B4EDCEF3A3BACFDFB3CCD5BB9D
:1036F000282530387829B7A2C9FAD2E7B3F60000F6
:10370000B4EDCEF3A3BAD6F7D5BB28253038782947
:10371000B7A2C9FAD2E7B3F600000000B7A2C9FA0F
:10372000D3C3B7A8B4EDCEF3A3ACD4ADD2F2A3BA51
:10373000C6F3CDBCD6B4D0D0B3FD203020B2D9D79B
:10374000F700000064370008000000208C00000033
:103750007C120008F03700088C000020448800002C
:103760008C120008000000000000000000000000B3
:103770000000000000000000000000000000000049
:103780000000000000000000000000000000000039
:103790000000000000000000000000000000000029
:1037A0000000000000000000000000000000000019
:1037B0000000000000000000000000000000000009
:1037C000AAAAAAAA00000000000000000000000051
:1037D00000000000000000000000000001000000E8
:1037E00010000000000000000024F40000000000B1
:040000050800018965
:00000001FF
